:020000040000FA
:0400000007EF00F016
:1000080050820BED09F0BDEF0AF00001B8BF19EFFF
:1000180000F0B851B7110BE17A0EB55D030EB65971
:10002800D8A019EF00F01BEF00F032EF00F0B8BFD6
:100038002CEF00F0B851B71109E1800EB55D030E41
:10004800B659D8B02AEF00F02CEF00F032EF00F0EC
:10005800000E3F6E310E3E6E89EF02F0B8BF41EFE1
:1000680000F0B851B7110BE1570EB55D030EB65944
:10007800D8A041EF00F043EF00F05AEF00F0B8BF0E
:1000880054EF00F0B851B71109E15A0EB55D030EEF
:10009800B659D8B052EF00F054EF00F05AEF00F024
:1000A800000E3F6E320E3E6E89EF02F0B8BF69EF68
:1000B80000F0B851B7110BE1230EB55D030EB65928
:1000C800D8A069EF00F06BEF00F082EF00F0B8BF46
:1000D8007CEF00F0B851B71109E1260EB55D030EAB
:1000E800B659D8B07AEF00F07CEF00F082EF00F05C
:1000F800000E3F6E330E3E6E89EF02F0B8BF91EFEF
:1001080000F0B851B7110BE1EB0EB55D020EB65910
:10011800D8A091EF00F093EF00F0AAEF00F0B8BF7D
:10012800A4EF00F0B851B71109E1F10EB55D020E68
:10013800B659D8B0A2EF00F0A4EF00F0AAEF00F093
:10014800000E3F6E410E3E6E89EF02F0B8BFB9EF68
:1001580000F0B851B7110BE1D50EB55D030EB659D5
:10016800D8A0B9EF00F0BBEF00F0D2EF00F0B8BFB5
:10017800CCEF00F0B851B71109E1DE0EB55D030E02
:10018800B659D8B0CAEF00F0CCEF00F0D2EF00F0CB
:10019800000E3F6E340E3E6E89EF02F0B8BFE1EFFD
:1001A80000F0B851B7110BE1AB0EB55D030EB659AF
:1001B800D8A0E1EF00F0E3EF00F0FAEF00F0B8BFED
:1001C800F4EF00F0B851B71109E1AE0EB55D030EBA
:1001D800B659D8B0F2EF00F0F4EF00F0FAEF00F003
:1001E800000E3F6E350E3E6E89EF02F0B8BF09EF84
:1001F80001F0B851B7110BE1710EB55D030EB65998
:10020800D8A009EF01F00BEF01F022EF01F0B8BF21
:100218001CEF01F0B851B71109E1750EB55D030E79
:10022800B659D8B01AEF01F01CEF01F022EF01F037
:10023800000E3F6E360E3E6E89EF02F0B8BF31EF0A
:1002480001F0B851B7110BE12F0EB55D030EB65989
:10025800D8A031EF01F033EF01F04AEF01F0B8BF59
:1002680044EF01F0B851B71109E1330EB55D030E43
:10027800B659D8B042EF01F044EF01F04AEF01F06F
:10028800000E3F6E420E3E6E89EF02F0B8BF59EF86
:1002980001F0B851B7110BE1CB0EB55D030EB6599D
:1002A800D8A059EF01F05BEF01F072EF01F0B8BF91
:1002B8006CEF01F0B851B71109E1CF0EB55D030E2F
:1002C800B659D8B06AEF01F06CEF01F072EF01F0A7
:1002D800000E3F6E370E3E6E89EF02F0B8BF81EF19
:1002E80001F0B851B7110BE19E0EB55D030EB6597A
:1002F800D8A081EF01F083EF01F09AEF01F0B8BFC9
:1003080094EF01F0B851B71109E1A40EB55D030EE1
:10031800B659D8B092EF01F094EF01F09AEF01F0DE
:10032800000E3F6E380E3E6E89EF02F0B8BFA9EF9F
:1003380001F0B851B7110BE1670EB55D030EB65960
:10034800D8A0A9EF01F0ABEF01F0C2EF01F0B8BF00
:10035800BCEF01F0B851B71109E16E0EB55D030E9F
:10036800B659D8B0BAEF01F0BCEF01F0C2EF01F016
:10037800000E3F6E390E3E6E89EF02F0B8BFD1EF26
:1003880001F0B851B7110BE1210EB55D030EB65956
:10039800D8A0D1EF01F0D3EF01F0EAEF01F0B8BF38
:1003A800E4EF01F0B851B71109E12B0EB55D030E6A
:1003B800B659D8B0E2EF01F0E4EF01F0EAEF01F04E
:1003C800000E3F6E430E3E6E89EF02F0B8BFF9EFA4
:1003D80001F0B851B7110BE1E90EB55D030EB6593E
:1003E800D8A0F9EF01F0FBEF01F011EF02F0B8BF70
:1003F8000BEF02F0B851B71108E1B529030EB65951
:10040800D8B009EF02F00BEF02F011EF02F0000E86
:100418003F6E2A0E3E6E89EF02F0B8BF20EF02F061
:10042800B851B7110BE1BF0EB55D030EB659D8A090
:1004380020EF02F022EF02F039EF02F0B8BF33EFFD
:1004480002F0B851B71109E1C60EB55D030EB659F1
:10045800D8B031EF02F033EF02F039EF02F0000EBE
:100468003F6E300E3E6E89EF02F0B8BF48EF02F0E3
:10047800B851B7110BE1850EB55D030EB659D8A07A
:1004880048EF02F04AEF02F061EF02F0B8BF5BEF0D
:1004980002F0B851B71109E18A0EB55D030EB659DD
:1004A800D8B059EF02F05BEF02F061EF02F0000EF6
:1004B8003F6E230E3E6E89EF02F0B8BF70EF02F078
:1004C800B851B7110BE1410EB55D030EB659D8A06E
:1004D80070EF02F072EF02F089EF02F0B8BF83EF1D
:1004E80002F0B851B71109E14A0EB55D030EB659CD
:1004F800D8B081EF02F083EF02F089EF02F0000E2E
:100508003F6E440E3E6E89EF02F0000E156E010E2E
:1005180058EC09F0EF0E366E7F0E376E3EC038F09D
:100528003FC039F0A7EC02F0F30E366E7F0E376E3F
:10053800B5C038F0B6C039F0B7C03AF0B8C03BF033
:10054800A7EC02F01200380E0001B36F000EB46F72
:1005580036C0AFF037C0B0F08EEF04F0AFC0F6FF92
:10056800B0C0F7FF0800F5CFB1F0250EB119D8A437
:10057800C0EF02F0C2EF02F088EF04F0AF4BB02BEF
:10058800AFC0F6FFB0C0F7FF0800F5CFB1F02F0EEF
:10059800B165D1EF02F0D3EF02F000EF03F03A0EAD
:1005A800B161D9EF02F0DBEF02F000EF03F0000ECB
:1005B800B26FEEEF02F0B2510A0DF350B125D00F31
:1005C800B26FAF4BB02BAFC0F6FFB0C0F7FF08005B
:1005D800F5CFB1F02F0EB165F4EF02F0F6EF02F0AF
:1005E80003EF03F0390EB165FCEF02F0FEEF02F005
:1005F800DFEF02F03DEF04F0B2693DEF04F03DEFAC
:1006080004F0B3C0D9FFB4C0DAFFDF50B16F020EF7
:10061800B327000EB423B1518CEC07F08BEF04F034
:10062800B3C0D9FFB4C0DAFFDECFA5F0DDCFA6F0A6
:10063800020EB327000EB423A6BF27EF03F025EF61
:1006480003F02EEF03F0A56DA61FD8B0A62B2D0E34
:100658008CEC07F0A5C01AF0A6C01BF0000E1BBE5C
:10066800FF0E1C6E1D6EB2C01EF00A0ED5EC05F012
:100678008BEF04F0B3C0D9FFB4C0DAFFDECFA7F028
:10068800DDCFA8F0020EB327000EB423A8BF51EFA8
:1006980003F04FEF03F058EF03F0A76DA81FD8B091
:1006A800A82B2D0E8CEC07F0A7C01AF0A8C01BF0E1
:1006B800000E1BBEFF0E1C6E1D6EB2C01EF00A0E91
:1006C800D5EC05F08BEF04F0B3C0D9FFB4C0DAFF66
:1006D800DECFADF0DDCFAEF0020EB327000EB423AF
:1006E800ADC01AF0AEC01BF01C6A1D6AB2C01EF085
:1006F8000A0ED5EC05F08BEF04F0B3C0D9FFB4C0F7
:10070800DAFFDECFA9F0DECFAAF0DECFABF0DECF86
:10071800ACF0040EB327000EB423A9C01AF0AAC087
:100728001BF0ABC01CF0ACC01DF0B2C01EF00A0E2E
:10073800D5EC05F08BEF04F0B3C0D9FFB4C0DAFFF5
:10074800DECFADF0DDCFAEF0020EB327000EB4233E
:10075800ADC01AF0AEC01BF01C6A1D6AB2C01EF014
:10076800100ED5EC05F08BEF04F0B3C0D9FFB4C080
:10077800DAFFDECFA9F0DECFAAF0DECFABF0DECF16
:10078800ACF0040EB327000EB423A9C01AF0AAC017
:100798001BF0ABC01CF0ACC01DF0B2C01EF0100EB8
:1007A800D5EC05F08BEF04F0B3C0D9FFB4C0DAFF85
:1007B800DECFADF0DDCFAEF0020EB327000EB423CE
:1007C800B229D8A4EAEF03F0ECEF03F0EEEF03F060
:1007D800100EB26FADC01AF0AEC01BF01C6A1D6AD5
:1007E800B2C01EF0020ED5EC05F08BEF04F0B3C0DA
:1007F800D9FFB4C0DAFFDECFA9F0DECFAAF0DECF92
:10080800ABF0DECFACF0040EB327000EB423B22950
:10081800D8A411EF04F013EF04F015EF04F0100E54
:10082800B26FA9C01AF0AAC01BF0ABC01CF0ACC0D4
:100838001DF0B2C01EF0020ED5EC05F08BEF04F0EF
:10084800B3C0D9FFB4C0DAFFDECFA3F0DDCFA4F088
:10085800020EB327000EB423A3C016F0A4C017F0ED
:10086800C9EC0BF08BEF04F0250E8CEC07F08BEF46
:1008780004F0B1513C6E3D6A3D50000AD8B447EFD0
:1008880004F08BEF04F03C50250AD8B438EF04F09C
:10089800670AD8B4FBEF03F0010AD8B405EF03F0F8
:1008A800070AD8B43EEF03F0020AD8B486EF04F082
:1008B800150AD8B424EF04F0060AD8B481EF03F07F
:1008C8000D0AD8B4B9EF03F03A0AD8B4D8EF03F058
:1008D800010AD8B405EF03F0070AD8B414EF03F0FF
:1008E800020AD8B48BEF04F0150AD8B424EF04F048
:1008F800060AD8B468EF03F00D0AD8B4A0EF03F0E5
:100908008BEF04F08BEF04F0B1518CEC07F0000191
:10091800AF4BB02BAFC0F6FFB0C0F7FF0800F550E3
:100928000009D8A49AEF04F09CEF04F0B2EF02F0AB
:100938001200A5EC0BF092969298929A9690948257
:1009480000019B519C11D8B4ACEF04F0AEEF04F059
:10095800B5EF05F0000E9C6F010E9B6F420E106EF6
:100968007B0E116ED9EC09F0000E126E010E116E9D
:10097800F8EC0BF050EC0AF0000E156E000E58EC77
:1009880009F0420E366E7F0E376EA7EC02F0000EAD
:10099800126E010E116EF8EC0BF015EC0AF0000E59
:1009A800436E010E426E42C00FF043C010F0F0ECEF
:1009B8000AF0600E406E000E416ED8904234D96E37
:1009C8004334DA6ED890D936DA364050D9264150B9
:1009D800DA220FC0DEFF10C0DEFF11C0DEFF12C03A
:1009E800DEFF424A432A43BE03EF05F0435009E1C4
:1009F800030E425CD8A003EF05F005EF05F0D7EF32
:100A080004F064C074F065C075F066C076F067C025
:100A180077F068C070F069C071F06AC072F06BC09E
:100A280073F070C027F071C028F072C029F073C04D
:100A38002AF0000E2B6E000E2C6E000E2D6E000E8E
:100A48002E6EFF0E2F6E030E306E000E316E000EEE
:100A5800326E000E336E000E346E000E356E000ED0
:100A6800366E640E376E000E386E000E396E000E4C
:100A78003A6E9CEC09F027C070F028C071F029C0CC
:100A880072F02AC073F09694E1EC0BF0F70E366E14
:100A98007F0E376E000E396E000E386EA7EC02F02E
:100AA800670E156E070E58EC09F0EA0E366E7F0ECB
:100AB800376E70C038F071C039F072C03AF073C048
:100AC8003BF0A7EC02F000017BBF76EF05F07B510D
:100AD8007A11791109E10B0E785DD8A076EF05F04F
:100AE80078EF05F088EF05F0000E106E0A0E0F6E15
:100AF8000DEC0CF078C0B5F079C0B6F07AC0B7F05C
:100B08007BC0B8F009EC00F00001884B892B89BF45
:100B180097EF05F0895109E1040E885DD8A097EF99
:100B280005F099EF05F09DEF05F0000E896F000EB6
:100B3800886F9B519C11D8A4A4EF05F0A6EF05F08F
:100B4800D1EF04F0000E156E000E58EC09F0FB0E04
:100B5800366E7F0E376E9BC038F09CC039F0A7EC1C
:100B680002F000019B519C11D8A4BDEF05F0BFEF26
:100B780005F0A3EF04F050EC0AF0420E106E770E69
:100B8800116ED9EC09F000019B059C11D8A4CFEF98
:100B980005F0D1EF05F0C1EF05F0A3EF04F007EF82
:100BA80000F0346E020E3418D8A4DDEF05F0DFEF44
:100BB80005F01EEF06F014EF06F01EC01FF0FF0E42
:100BC8001F26010E206E216A226A236A1F2AF2EF6D
:100BD80005F0D89020362136223623361F2EEDEF29
:100BE80005F01A502014246E1B502114256E1C5039
:100BF8002214266E1D502314276E2450251026100B
:100C08002710D8A40AEF06F00DEF06F0010E0EEF3C
:100C180006F0000E356E3550300F8CEC07F01E06CE
:100C28001E50D8A41AEF06F01CEF06F0E1EF05F00D
:100C380005EF07F01A501B101C101D10D8A427EF41
:100C480006F029EF06F044EF06F0000E356E31EF9E
:100C580006F0300E8CEC07F0352A1E50355CD8B003
:100C680038EF06F03AEF06F005EF07F0090E3564A5
:100C780040EF06F042EF06F02DEF06F005EF07F023
:100C8800000E356EA1EF06F01A501B101C101D1037
:100C9800D8B451EF06F053EF06F086EF06F0280EB1
:100CA8003524D96EDA6A000EDA221AC00DF01BC09C
:100CB8000EF01CC00FF01DC010F03450116E126AF7
:100CC800136A146AB9EC08F00D503402F3501A5C38
:100CD800DF6E1AC00DF01BC00EF01CC00FF01DC057
:100CE80010F03450116E126A136A146AB9EC08F0E5
:100CF8000DC01AF00EC01BF00FC01CF010C01DF084
:100D0800A0EF06F01E28D8B48CEF06F08EEF06F0A0
:100D1800FDEF06F00A0E1E6494EF06F096EF06F05B
:100D280098EF06F0FDEF06F0280E3524D96EDA6A42
:100D3800000EDA22000EDF6E352A1E50355CD8A070
:100D4800A8EF06F0AAEF06F048EF06F0FDEF06F070
:100D5800FF0E1F6EFF0E206E3550216E226A1F5047
:100D6800212620502222280E2124D96E000E22206E
:100D7800DA6E0A0EDF60C3EF06F0C5EF06F0E0EFAB
:100D880006F0FF0E1F6EFF0E206E3550216E226A90
:100D98001F50212620502222280E2124D96E000E11
:100DA8002220DA6EDF50236E300E2324326E336A2F
:100DB800000E3322F9EF06F0FF0E1F6EFF0E206EB5
:100DC8003550216E226A1F50212620502222280EDB
:100DD8002124D96E000E2220DA6EDF50236E370EE2
:100DE8002324326E336A000E332232508CEC07F023
:100DF80035063550D8A403EF07F005EF07F0ACEF40
:100E080006F01200000E226E20BE0FEF07F00DEF65
:100E180007F019EF07F0201E1F1E1E1E1D6C000E86
:100E28001E221F222022010E226E1CBE20EF07F078
:100E38001EEF07F02AEF07F01C1E1B1E1A1E196C66
:100E4800000E1A221B221C22010E221A000E236EEB
:100E5800000E246E000E256E000E266E1D501E100C
:100E68001F102010D8B43BEF07F03DEF07F073EFE9
:100E780007F0010E216E47EF07F0D8901D361E3699
:100E88001F362036212A20AE4CEF07F04EEF07F030
:100E980041EF07F0D89023362436253626361D50E4
:100EA800195C1E501A581F501B5820501C58D8A0A7
:100EB80060EF07F062EF07F06BEF07F01D50195E67
:100EC8001E501A5A1F501B5A20501C5A2380D89063
:100ED80020321F321E321D32212E4EEF07F02250D3
:100EE800D8B479EF07F07BEF07F083EF07F0261E01
:100EF800251E241E236C000E24222522262223C010
:100F080019F024C01AF025C01BF026C01CF01200EE
:100F1800156E000E146E4404D8A495EF07F097EFF1
:100F280007F0ACEF07F04650116E126A050E112655
:100F3800000E122212BEACEF07F0125007E1800E2D
:100F4800115CD8B0AAEF07F0ACEF07F0B5EF07F0E7
:100F58000A0E1518D8A4B3EF07F0B5EF07F0B7EFEE
:100F680007F042EC0CF00A0E1518D8B4BEEF07F0E3
:100F7800C0EF07F0FEEF07F01550E00F156E445074
:100F8800D8A4C9EF07F0CBEF07F0D7EF07F0800E32
:100F98004618D8A4D2EF07F0D4EF07F0D7EF07F040
:100FA800010E7BEC0BF01550050D670E116E750EDA
:100FB800126EF3501126F450122214501126000E0E
:100FC800122211C0F6FF12C0F7FF0800F5CF13F088
:100FD80013507BEC0CF0462A142A050E1418D8A4DA
:100FE800F8EF07F0FAEF07F0C3EF07F0000E7BEC1D
:100FF8000CF0462A1200000E126E10BE08EF08F020
:1010080006EF08F00EEF08F00F6C101ED8B0102A8B
:10101800010E126E0EBE15EF08F013EF08F01BEF6D
:1010280008F00D6C0E1ED8B00E2A010E121A000E12
:10103800146E000E136E0F501010D8B426EF08F07F
:1010480028EF08F050EF08F0010E116E30EF08F0AD
:10105800D8900F361036112A10AE35EF08F037EF5A
:1010680008F02CEF08F0D890133614360F500D5CAA
:1010780010500E58D8A043EF08F045EF08F04AEF9B
:1010880008F00F500D5E10500E5A1380D890103291
:101098000F32112E37EF08F01250D8B456EF08F07F
:1010A80058EF08F05CEF08F0136C141ED8B0142A3F
:1010B80013C00DF014C00EF01200000E126E0EBE1A
:1010C8006AEF08F068EF08F070EF08F00D6C0E1E7C
:1010D800D8B00E2A010E126E10BE77EF08F075EF29
:1010E80008F07BEF08F00F6C101ED8B0102A0F50D4
:1010F8001010D8B482EF08F084EF08F0A8EF08F0D9
:10110800010E116E8CEF08F0D8900F361036112AA8
:1011180010AE91EF08F093EF08F088EF08F00F5049
:101128000D5C10500E58D8A09CEF08F09EEF08F008
:10113800A2EF08F00F500D5E10500E5AD8901032E2
:101148000F32112E93EF08F01250D8B4AEEF08F01A
:10115800B0EF08F0B4EF08F00D6C0E1ED8B00E2AF0
:101168000DC00DF00EC00EF01200000E156E000E30
:10117800166E000E176E000E186E11501210131016
:101188001410D8B4CAEF08F0CCEF08F002EF09F059
:10119800010E196ED6EF08F0D890113612361336B4
:1011A8001436192A14AEDBEF08F0DDEF08F0D0EFA3
:1011B80008F0D890153616361736183611500D5CCB
:1011C80012500E5813500F5814501058D8A0EFEF63
:1011D80008F0F1EF08F0FAEF08F011500D5E125028
:1011E8000E5A13500F5A1450105A1580D8901432B2
:1011F800133212321132192EDDEF08F015C00DF03E
:1012080016C00EF017C00FF018C010F0120006003C
:10121800F3CF0BF0F4CF0CF09DA015EF09F017EF0A
:1012280009F052EF09F09EA01CEF09F01EEF09F03B
:1012380052EF09F082A223EF09F025EF09F027EF1A
:1012480009F0481E491E000E046E000E036E1FECC6
:101258000BF003C078F004C079F005C07AF006C03E
:101268007BF082A23AEF09F03CEF09F051EF09F068
:1012780000019B519C11D8B444EF09F047EF09F0E5
:10128800010E48EF09F0000E9B6F9C6B82B24FEF86
:1012980009F051EF09F04AEF09F09E900CC0F4FFF5
:1012A8000BC0F3FF50921100166E080E16605FEF28
:1012B80009F061EF09F09BEF09F0810E156067EF07
:1012C80009F069EF09F09BEF09F015C00DF00E6AFF
:1012D800000E106E400E0F6EFFEC07F00D50176EEB
:1012E80015C00DF00E6A000E106E3F0E0F6E61EC09
:1012F80008F00D50156E1750D8A485EF09F087EF48
:1013080009F08BEF09F090EC0CF08DEF09F08DEC03
:101318000CF017C044F01650B809456E1550400936
:10132800466E465032EC0CF0455032EC0CF0120090
:101338002B50275C0D6E2C5028580E6E2D502958B6
:101348000F6E2E502A58106E3350375C116E345081
:101358003858126E35503958136E36503A58146E44
:1013680088EC0AF00DC019F00EC01AF00FC01BF07F
:1013780010C01CF02B502F5C1D6E2C5030581E6E68
:101388002D5031581F6E2E503258206E06EC07F043
:1013980033501924276E34501A20286E35501B20DC
:1013A800296E36501C202A6E1200000E136E90EC27
:1013B8000CF0400E32EC0CF01350B80F32EC0CF07D
:1013C800000E126E400E1218D8A4EDEF09F0EFEFE0
:1013D80009F0F8EF09F08DEC0CF0400E32EC0CF04F
:1013E8001350B80F32EC0CF010C0F6FF11C0F7FF25
:1013F8000800F5507BEC0CF0104A112A122A7F0ED7
:10140800126409EF0AF00BEF0AF0E6EF09F0132A6D
:10141800070E136412EF0AF014EF0AF0DBEF09F07D
:10142800120046EF0AF0000E156E000E58EC09F097
:10143800B00E366E7F0E376EA7EC02F0990E366E40
:101448007F0E376EA7EC02F0820E366E7F0E376E77
:10145800A7EC02F0C70E366E7F0E376EA7EC02F0CF
:101468006B0E366E7F0E376EA7EC02F06B0E366E83
:101478007F0E376EA7EC02F06B0E366E7F0E376E5E
:10148800A7EC02F082BC4BEF0AF04DEF0AF017EF21
:101498000AF050EC0AF01200000E136E90EC0CF0FB
:1014A800400E32EC0CF01350B80F32EC0CF0000E7A
:1014B800126E400E1218D8A464EF0AF066EF0AF014
:1014C8006FEF0AF08DEC0CF0400E32EC0CF013507C
:1014D800B80F32EC0CF0000E7BEC0CF0122A7F0EE9
:1014E800126479EF0AF07BEF0AF05DEF0AF0132A35
:1014F800070E136482EF0AF084EF0AF052EF0AF045
:10150800000E22EC0CF01200000E156E000E166E86
:10151800000E176E000E186E0DA095EF0AF097EFEB
:101528000AF09FEF0AF01150152612501622135098
:10153800172214501822D890113612361336143642
:10154800D89010320F320E320D320D500E100F108F
:101558001010D8A4B2EF0AF0B4EF0AF090EF0AF036
:1015680015C00DF016C00EF017C00FF018C010F01F
:101578001200DE0EF66E180EF76E000EF86E00EE14
:101588008BF010EE18F00900F5CFEEFFE550E150B2
:10159800FAE1260EF66E190EF76E000EF86E00EEE2
:1015A8004CF010EE04F00900F5CFEEFFE550E150E5
:1015B800FAE100EE60F02B0EEE6AE806FDE100EEBF
:1015C80044F0080EEE6AE806FDE150905092000ED5
:1015D800F86E00019DEF04F00FC013F01346134698
:1015E800C2501318C30B1318C26EC280C282C2B293
:1015F80000EF0BF002EF0BF0FBEF0AF0C450FF0D09
:10160800F3CF13F0F4CF14F0C3501324156E000E6B
:101618001420166EC290000E0E6E040E0D6E51EC64
:101628000CF015C00FF016C010F0000E10BEFF0E23
:10163800116E126E120003C007F007460746C2502B
:101648000718C30B0718C26EC280C282C2B22FEF3E
:101658000BF031EF0BF02AEF0BF0C450FF0DF3CF76
:1016680007F0F4CF08F0C3500724096E000E0820D5
:101678000A6EC290000E026E040E016E60EC0CF051
:1016880009C003F00AC004F0000E04BEFF0E056E88
:10169800066E1200000E936EE00E951690EC0CF09C
:1016A8003F0E32EC0CF08DEC0CF03F0E32EC0CF0EF
:1016B800000E106E0A0E0F6E0DEC0CF090EC0CF094
:1016C800C00E32EC0CF08DEC0CF0C00E32EC0CF0CD
:1016D800000E7BEC0BF050EC0AF0000E446EB80ED6
:1016E800456E400E466E000E7BEC0BF01200106E3D
:1016F8001050D8B482EF0BF084EF0BF08CEF0BF0A6
:101708001004D8A48AEF0BF08CEF0BF0A4EF0BF0C9
:101718001050D8A492EF0BF094EF0BF098EF0BF069
:1017280090EC0CF09AEF0BF08DEC0CF010C044F03C
:10173800400E466E455032EC0CF0465032EC0CF040
:101748001200010ECD6E9D80F28CD08E9F80F28E9D
:101758009E90000ED56EF28AF194D58E4EEC0BF069
:10176800C150F00B0C09C16ECF0EC116C30EC216C4
:10177800C292C290C050C70B1009C06EC050F80B7F
:101788000509C06EC08E94681200D4EF0BF016C025
:10179800D9FF17C0DAFFDF508CEC07F0164A172A7A
:1017A80016C0D9FF17C0DAFFDF50D8A4DEEF0BF060
:1017B800E0EF0BF0CBEF0BF01200000173BFF0EF7E
:1017C8000BF073517211711109E1290E705DD8A0E7
:1017D800F0EF0BF0F2EF0BF0F6EF0BF09694849429
:1017E800F7EF0BF08484120003EF0CF0030E106E79
:1017F800E80E0F6E0DEC0CF01106D8A01206115071
:101808001210D8A40AEF0CF00CEF0CF0FAEF0BF062
:10181800120018EF0CF0010E0E6E2C0E0D6E51EC2E
:101828000CF00F06D8A010060F501010D8A41FEF08
:101838000CF021EF0CF00FEF0CF01200116E080EF7
:10184800116029EF0CF02BEF0CF031EF0CF0115078
:10185800B80F456E000E7BEC0BF012000F6E86EC95
:101868000CF00FC081FF839683948388000E0E6E60
:10187800010E0D6E51EC0CF083981200452ABF0E34
:10188800456449EF0CF04BEF0CF04DEF0CF0B80E3F
:10189800456E000E7BEC0BF0120056EF0CF00D06B7
:1018A800D8A00E060D500E10D8A45DEF0CF05FEF17
:1018B8000CF053EF0CF0120065EF0CF00106D8A005
:1018C800020601500210D8A46CEF0CF06EEF0CF079
:1018D80062EF0CF01200313233413435364237387A
:1018E80039432A30234401000300010004000F6E2D
:1018F80086EC0CF047500F18816E8386839483889A
:1019080083981200000E0E6E0A0E0D6E51EC0CF04C
:101918001200838083921200838283901200010058
:02192800280095
:107166000000000000000000000000000000000019
:107176000000000000000000000000000000000009
:1071860000000000000000000000000000000000F9
:1071960000000000000000000000000000000000E9
:1071A60000000000000000000000000000000000D9
:1071B60000000000000000000000000000000000C9
:1071C60000000000000000000000000000000000B9
:1071D60000000000000000000000000000000000A9
:1071E6000000000000000000000000000000000099
:1071F6000000000000000000000000000000000089
:107206000000000000000000000000000000000078
:107216000000000000000000000000000000000068
:107226000000000000000000000000000000000058
:107236000000000000000000000000000000000048
:107246000000000000000000000000000000000038
:107256000000000000000000000000000000000028
:107266000000000000000000000000000000000018
:107276000000000000000000000000000000000008
:107286000000000000000000000000000020E0E018
:1072960000000F0F0F0F0F0F0F0000E060E000005F
:1072A60000000000E0E0E0000C0F0F0F0F0F0F0FC3
:1072B60000C0E0E0A00000000000000000000000A8
:1072C60000000000000000000000000000000000B8
:1072D60000000000000000000000000000000000A8
:1072E6000000000000000000000000000000000098
:1072F6000000000000000000000000000000000088
:107306000000000000000000FCFCFCFC0000010185
:107316000000000000000000000000010101001C48
:107326001C1C1C0001010100000000000000000000
:107336000001010101009CFCFC00000000000000AF
:107346000000000000000000000000000000000037
:107356000000000000000000000000000000000027
:107366000000000000000000000000000000000017
:107376000000000000000000000000000000000007
:1073860000000000000000000303030300181010B3
:107396000000808080000000000000000000000067
:1073A6000000000000000000000000000080808057
:1073B6000018281800000303030000000000000066
:1073C60000000000000000000000000000000000B7
:1073D60000000000000000000000000000000000A7
:1073E6000000000000000000000000000000000097
:1073F6000000000000000000000000000000000087
:107406000000000000000000000000000000000076
:107416000000060707003030303000000000000092
:107426000000000000000000707070600007070791
:107436000000000000000000000000000000000046
:107446000000000000000000000000000000000036
:107456000000000000000000000000000000000026
:107466000000000000000000000000000000000016
:107476000000000000000000000000000000000006
:1074860000000000000000000000000000000000F6
:1074960000000000000000000000000F0F0F002099
:1074A60020E0E0000D0F0F000000000000000000CB
:1074B60000000000000000000000000000000000C6
:1074C60000000000000000000000000000000000B6
:1074D60000000000000000000000000000000000A6
:1074E6000000000000000000000000000000000096
:1074F6000000000000000000000000000000000086
:107506000000000000000000000000000000000075
:107516000000000000000000000000000000000065
:107526000000000000000000000000000000000055
:107536000000000000000000000000000000000045
:107546000000000000000000000000000000000035
:107556000000000000000000000000000000000025
:1075660000000000000000002F00000007000700D8
:10757600147F147F14242A7F2A1223130864623688
:10758600495522500005030000001C22410000411D
:10759600221C0014083E081408083E08080000A033
:1075A6006000080808080800606000002010080451
:1075B600023E5149453E00427F40004261514946E4
:1075C6002141454B311814127F1027454545393C5A
:1075D6004A49493001710905033649494936064980
:1075E60049291E00363600000056360000081422CF
:1075F6004100141414141400412214080201510904
:1076060006324959513E7C1211127C7F494949364E
:107616003E414141227F4141221C7F494949417FE8
:10762600090909013E4149497A7F0808087F004156
:107636007F41002040413F017F081422417F4040A6
:1076460040407F020C027F7F0408107F3E4141418B
:107656003E7F090909063E4151215E7F09192946E7
:10766600464949493101017F01013F4040403F1FE2
:107676002040201F3F4038403F631408146307082A
:107686007008076151494543007F41410055AA559D
:10769600AA550041417F00040201020480808080D7
:1076A60080800000000020545454787F48444438B9
:1076B6003844444420384444487F385454541808C5
:1076C6007E09010218A4A4A47C7F0804047800445F
:1076D6007D40004080847D007F1028440000417F6B
:1076E60040007C041804787C080404783844444438
:1076F60038FC2424241818242418FC7C08040408C4
:107706004854545420043F4440203C4040207C1CB4
:107716002040201C3C4030403C44281028441CA0FB
:10772600A0A07C4464544C4400107C82003F0000BE
:10773600000000827C100000060909060000000017
:107746000000000000000000000000000000000033
:107756000000000000000000000000000000000023
:107766000000000000000000000000000000000013
:107776000000000000000000000000000000000003
:1077860000000000000000000000000000000000F3
:1077960000000000000000000000000000000000E3
:1077A60000000000000000000000000000000000D3
:1077B60000000000000000000000000000000000C3
:1077C60000000000000000000000000000000000B3
:1077D60000000000000000000000000000000000A3
:1077E6000000000000000000000000000000000093
:1077F6000000000000000000000000000000000083
:107806000000000000000000000000000000000072
:107816000000000000000000000000000000000062
:107826000000000000000000000000000000000052
:107836000000000000000000000000000000000042
:107846000000000000000000000000000000000032
:107856000000000000000000000000000000000022
:10786600000000000070000400700000000000002E
:1078760000000000000000007030040070000000EE
:1078860000000000000000000000000000000000F2
:1078960000000000000000000000000000000000E2
:1078A60000000000000000000000000000000000D2
:1078B60000000000000000000000000000000000C2
:1078C60000000000000000000000000000000000B2
:1078D60000000000000000000000000000000000A2
:1078E600000000FF0000000000000001010101018E
:1078F6000101010101010101000000000000010079
:107906000404040404040400040404040400101021
:107916001000C00000000000000000000000000091
:107926000000000000000000000000000000000051
:107936000000000000000000000000000000000041
:107946000000000000000000000000000000000031
:107956000000000000000000000000000000000021
:107966000010107F00000001000404040001000064
:107976000040000000010404040001001010100083
:1079860000000000000000000000000000000000F1
:10799600000003001000800000000000000000004E
:1079A60000000000000000000000000000000000D1
:1079B60000000000000000000000000000000000C1
:1079C60000000000000000000000000000000000B1
:1079D60000000000000000000000000000000000A1
:1079E6000001001F103000808080808080808081B0
:1079F60080808081808080808080008081818180FD
:107A0600808080808080E0809080848484848484E8
:107A16008480808080003F0000000000000000009D
:107A26000000000000000000000000000000000050
:107A36000000000000000000000000000000000040
:107A46000000000000000000000000000000000030
:107A56000000000000000000000000000000000020
:107A66000000000000000000000000000000000010
:107A76000000000000000000000000000000000000
:107A860000000000000000000000000000000000F0
:107A960000000000000000000000000000000000E0
:107AA60000000000000000000000000000000000D0
:107AB60000000000000000000000000000000000C0
:107AC60000000000000000000000000000000000B0
:107AD60000000000000000000000000000000000A0
:107AE6000000000000000000000000000000000090
:107AF6000000000000000000000000000000000080
:107B0600000000000000000000000000000000006F
:107B1600000000000000000000000000000000005F
:107B2600000000000000000000000000000000004F
:107B3600000000000000000000000000000000003F
:107B4600000000000000000000000000000000002F
:107B5600000000000000000000000000000000001F
:107B6600000000000000000000000000000000000F
:107B760000000000000000000000000000000000FF
:107B860000000000000000000000000000000000EF
:107B960000000000000000000000000000000000DF
:107BA60000000000000000000000000000000000CF
:107BB60000000000000000000000000000000000BF
:107BC60000000000000000000000000000000000AF
:107BD600000000000000000000000000000000009F
:107BE600000000000000000000000000800000000F
:107BF60000000000000000000080000000000000FF
:107C0600000000000000000000000000000000006E
:107C1600000000000000000000000000000000005E
:107C2600000000000000000000000000000000004E
:107C3600000000000000000000000000000000003E
:107C4600000000000000000000000000000000002E
:107C5600000000000000000000000000000000001E
:107C6600000000000000008000700000000001001D
:107C7600040404040404000100000007700080806E
:107C86008080808080000000007000840400700006
:107C960000000000000000000000000000000000DE
:107CA60000000000000000000000000000000000CE
:107CB60000000000000000000000000000000000BE
:107CC60000000000000000000000000000000000AE
:107CD600000000000000000000000000000000009E
:107CE60000000000000000FF00000000020000008D
:107CF600080002080000000200000000000000006A
:107D0600000000000002000808F8080F00000F003D
:107D1600000000000000000000000000000000005D
:107D2600000000000000000000000000000000004D
:107D3600000000000000000000000000000000003D
:107D4600000000000000000000000000000000002D
:107D5600000000000000000000000000000000001D
:107D6600000000000000007F00000000000000008E
:107D760000000000000000000000000000000000FD
:107D860000000000000000000000007F000000006E
:107D960000000000000000000000000000000000DD
:107DA60000000000000000000000000000000000CD
:107DB60000000000000000000000000000000000BD
:107DC60000000000000000000000000000000000AD
:107DD600000000000000000000000000000000009D
:107DE6000000000000000000000100003820200014
:107DF600080008202038080808080808382020004D
:107E06000808080020280002000100000000000009
:107E1600000000000000000000000000000000005C
:107E2600000000000000000000000000000000004C
:107E3600000000000000000000000000000000003C
:107E4600000000000000000000000000000000002C
:107E5600000000000000000000000000000000001C
:107E6600000000000000000000000000000000000C
:107E760000000000000000000000000000000000FC
:107E860000000000000000000000000000000000EC
:107E960000000000000000000000000000000000DC
:107EA60000000000000000000000000000000000CC
:107EB60000000000000000000000000000000000BC
:107EC60000000000000000000000000000000000AC
:107ED600000000000000000000000000000000009C
:107EE600000000000000000000000000000000008C
:107EF600000000000000000000000000000000007C
:107F0600000000000000000000000000000000006B
:107F1600000000000000000000000000000000005B
:107F2600000000000000000000000000000000004B
:107F360000000000000000000000000020202020BB
:107F4600204269656E76656E69646F20616C200AF1
:107F56002064697370656E7361646F72204D4C5056
:107F660033303030002020202020202020202020E8
:107F7600202020202020202020200A00476F6D6925
:107F8600746173202043372A2A2020243130303070
:107F9600300A00476173656F7361202044392A2ACD
:107FA60020202420353030300A0050617061732063
:107FB60020202041352A2A20202420333530300A3B
:107FC6000044756C6365202020204243312A20201E
:107FD6002420383530300A00417A756C204F73639F
:107FE60075726F0025647E430025630A0025640AC6
:0A7FF600000A256300253164000035
:020000040020DA
:08000000FFFFFFFFFFFFFFFF00
:020000040030CA
:0E000000000C011EFF8180FF0FC00FE00F40BB
:00000001FF
